{
  "contractName": "Store",
  "abi": [
    {
      "inputs": [],
      "payable": false,
      "stateMutability": "nonpayable",
      "type": "constructor"
    },
    {
      "anonymous": false,
      "inputs": [
        {
          "indexed": true,
          "internalType": "bytes32",
          "name": "productId",
          "type": "bytes32"
        },
        {
          "indexed": true,
          "internalType": "address",
          "name": "seller",
          "type": "address"
        },
        {
          "indexed": true,
          "internalType": "address",
          "name": "buyer",
          "type": "address"
        },
        {
          "indexed": false,
          "internalType": "address",
          "name": "escrow",
          "type": "address"
        }
      ],
      "name": "OrderCreated",
      "type": "event"
    },
    {
      "anonymous": false,
      "inputs": [
        {
          "indexed": true,
          "internalType": "bytes32",
          "name": "id",
          "type": "bytes32"
        },
        {
          "indexed": false,
          "internalType": "uint256",
          "name": "index",
          "type": "uint256"
        },
        {
          "indexed": false,
          "internalType": "string",
          "name": "name",
          "type": "string"
        },
        {
          "indexed": false,
          "internalType": "string",
          "name": "category",
          "type": "string"
        },
        {
          "indexed": false,
          "internalType": "string",
          "name": "imageLink",
          "type": "string"
        },
        {
          "indexed": false,
          "internalType": "string",
          "name": "descLink",
          "type": "string"
        },
        {
          "indexed": false,
          "internalType": "uint256",
          "name": "price",
          "type": "uint256"
        },
        {
          "indexed": false,
          "internalType": "enum Store.ProductStatus",
          "name": "status",
          "type": "uint8"
        }
      ],
      "name": "ProductCreated",
      "type": "event"
    },
    {
      "anonymous": false,
      "inputs": [
        {
          "indexed": true,
          "internalType": "bytes32",
          "name": "id",
          "type": "bytes32"
        },
        {
          "indexed": false,
          "internalType": "uint256",
          "name": "index",
          "type": "uint256"
        },
        {
          "indexed": false,
          "internalType": "string",
          "name": "name",
          "type": "string"
        },
        {
          "indexed": false,
          "internalType": "string",
          "name": "category",
          "type": "string"
        },
        {
          "indexed": false,
          "internalType": "string",
          "name": "imageLink",
          "type": "string"
        },
        {
          "indexed": false,
          "internalType": "string",
          "name": "descLink",
          "type": "string"
        },
        {
          "indexed": false,
          "internalType": "uint256",
          "name": "price",
          "type": "uint256"
        },
        {
          "indexed": false,
          "internalType": "enum Store.ProductStatus",
          "name": "status",
          "type": "uint8"
        }
      ],
      "name": "ProductUpdated",
      "type": "event"
    },
    {
      "constant": false,
      "inputs": [
        {
          "internalType": "string",
          "name": "name",
          "type": "string"
        },
        {
          "internalType": "string",
          "name": "category",
          "type": "string"
        },
        {
          "internalType": "string",
          "name": "imageLink",
          "type": "string"
        },
        {
          "internalType": "string",
          "name": "descLink",
          "type": "string"
        },
        {
          "internalType": "uint256",
          "name": "price",
          "type": "uint256"
        }
      ],
      "name": "addProduct",
      "outputs": [
        {
          "internalType": "uint256",
          "name": "",
          "type": "uint256"
        }
      ],
      "payable": false,
      "stateMutability": "nonpayable",
      "type": "function"
    },
    {
      "constant": false,
      "inputs": [
        {
          "internalType": "bytes32",
          "name": "id",
          "type": "bytes32"
        }
      ],
      "name": "placeOrder",
      "outputs": [],
      "payable": true,
      "stateMutability": "payable",
      "type": "function"
    },
    {
      "constant": true,
      "inputs": [
        {
          "internalType": "bytes32",
          "name": "id",
          "type": "bytes32"
        }
      ],
      "name": "isProduct",
      "outputs": [
        {
          "internalType": "bool",
          "name": "",
          "type": "bool"
        }
      ],
      "payable": false,
      "stateMutability": "view",
      "type": "function"
    },
    {
      "constant": true,
      "inputs": [
        {
          "internalType": "bytes32",
          "name": "id",
          "type": "bytes32"
        }
      ],
      "name": "getProduct",
      "outputs": [
        {
          "internalType": "string",
          "name": "",
          "type": "string"
        },
        {
          "internalType": "string",
          "name": "",
          "type": "string"
        },
        {
          "internalType": "string",
          "name": "",
          "type": "string"
        },
        {
          "internalType": "string",
          "name": "",
          "type": "string"
        },
        {
          "internalType": "uint256",
          "name": "",
          "type": "uint256"
        },
        {
          "internalType": "uint256",
          "name": "",
          "type": "uint256"
        },
        {
          "internalType": "enum Store.ProductStatus",
          "name": "",
          "type": "uint8"
        }
      ],
      "payable": false,
      "stateMutability": "view",
      "type": "function"
    },
    {
      "constant": true,
      "inputs": [],
      "name": "getProductCount",
      "outputs": [
        {
          "internalType": "uint256",
          "name": "",
          "type": "uint256"
        }
      ],
      "payable": false,
      "stateMutability": "view",
      "type": "function"
    },
    {
      "constant": true,
      "inputs": [
        {
          "internalType": "uint256",
          "name": "index",
          "type": "uint256"
        }
      ],
      "name": "getProductIdAt",
      "outputs": [
        {
          "internalType": "bytes32",
          "name": "",
          "type": "bytes32"
        }
      ],
      "payable": false,
      "stateMutability": "view",
      "type": "function"
    },
    {
      "constant": false,
      "inputs": [
        {
          "internalType": "bytes32",
          "name": "id",
          "type": "bytes32"
        },
        {
          "internalType": "enum Store.ProductStatus",
          "name": "status",
          "type": "uint8"
        }
      ],
      "name": "updateProductStatus",
      "outputs": [
        {
          "internalType": "bool",
          "name": "",
          "type": "bool"
        }
      ],
      "payable": false,
      "stateMutability": "nonpayable",
      "type": "function"
    }
  ],
  "bytecode": "0x608060405234801561001057600080fd5b50336000806101000a81548173ffffffffffffffffffffffffffffffffffffffff021916908373ffffffffffffffffffffffffffffffffffffffff160217905550611f9c806100606000396000f3fe6080604052600436106100705760003560e01c80634a348da91161004e5780634a348da91461059b5780635f65faf1146105c657806398a6dd5014610619578063d1241e671461064757610070565b80630ed719321461007557806325dfbfba146100d55780633a20e9df14610380575b600080fd5b34801561008157600080fd5b506100bb6004803603604081101561009857600080fd5b8101908080359060200190929190803560ff169060200190929190505050610696565b604051808215151515815260200191505060405180910390f35b3480156100e157600080fd5b5061036a600480360360a08110156100f857600080fd5b810190808035906020019064010000000081111561011557600080fd5b82018360208201111561012757600080fd5b8035906020019184600183028401116401000000008311171561014957600080fd5b91908080601f016020809104026020016040519081016040528093929190818152602001838380828437600081840152601f19601f820116905080830192505050505050509192919290803590602001906401000000008111156101ac57600080fd5b8201836020820111156101be57600080fd5b803590602001918460018302840111640100000000831117156101e057600080fd5b91908080601f016020809104026020016040519081016040528093929190818152602001838380828437600081840152601f19601f8201169050808301925050505050505091929192908035906020019064010000000081111561024357600080fd5b82018360208201111561025557600080fd5b8035906020019184600183028401116401000000008311171561027757600080fd5b91908080601f016020809104026020016040519081016040528093929190818152602001838380828437600081840152601f19601f820116905080830192505050505050509192919290803590602001906401000000008111156102da57600080fd5b8201836020820111156102ec57600080fd5b8035906020019184600183028401116401000000008311171561030e57600080fd5b91908080601f016020809104026020016040519081016040528093929190818152602001838380828437600081840152601f19601f820116905080830192505050505050509192919290803590602001909291905050506109e9565b6040518082815260200191505060405180910390f35b34801561038c57600080fd5b506103b9600480360360208110156103a357600080fd5b8101908080359060200190929190505050610f59565b60405180806020018060200180602001806020018881526020018781526020018660038111156103e557fe5b60ff16815260200185810385528c818151815260200191508051906020019080838360005b8381101561042557808201518184015260208101905061040a565b50505050905090810190601f1680156104525780820380516001836020036101000a031916815260200191505b5085810384528b818151815260200191508051906020019080838360005b8381101561048b578082015181840152602081019050610470565b50505050905090810190601f1680156104b85780820380516001836020036101000a031916815260200191505b5085810383528a818151815260200191508051906020019080838360005b838110156104f15780820151818401526020810190506104d6565b50505050905090810190601f16801561051e5780820380516001836020036101000a031916815260200191505b50858103825289818151815260200191508051906020019080838360005b8381101561055757808201518184015260208101905061053c565b50505050905090810190601f1680156105845780820380516001836020036101000a031916815260200191505b509b50505050505050505050505060405180910390f35b3480156105a757600080fd5b506105b06112a9565b6040518082815260200191505060405180910390f35b3480156105d257600080fd5b506105ff600480360360208110156105e957600080fd5b81019080803590602001909291905050506112b6565b604051808215151515815260200191505060405180910390f35b6106456004803603602081101561062f57600080fd5b8101908080359060200190929190505050611306565b005b34801561065357600080fd5b506106806004803603602081101561066a57600080fd5b810190808035906020019092919050505061160c565b6040518082815260200191505060405180910390f35b60006106a1836112b6565b6106aa57600080fd5b816001600085815260200190815260200160002060060160006101000a81548160ff021916908360038111156106dc57fe5b0217905550827f17c18b5c0c3c0f1613b1b9b17e8ae203a66135d925c1d7fbaed0e5e02208fba96001600086815260200190815260200160002060050154600160008781526020019081526020016000206000016001600088815260200190815260200160002060010160016000898152602001908152602001600020600201600160008a8152602001908152602001600020600301600160008b8152602001908152602001600020600401548960405180888152602001806020018060200180602001806020018781526020018660038111156107b657fe5b60ff16815260200185810385528b81815460018160011615610100020316600290048152602001915080546001816001161561010002031660029004801561083f5780601f106108145761010080835404028352916020019161083f565b820191906000526020600020905b81548152906001019060200180831161082257829003601f168201915b505085810384528a8181546001816001161561010002031660029004815260200191508054600181600116156101000203166002900480156108c25780601f10610897576101008083540402835291602001916108c2565b820191906000526020600020905b8154815290600101906020018083116108a557829003601f168201915b50508581038352898181546001816001161561010002031660029004815260200191508054600181600116156101000203166002900480156109455780601f1061091a57610100808354040283529160200191610945565b820191906000526020600020905b81548152906001019060200180831161092857829003601f168201915b50508581038252888181546001816001161561010002031660029004815260200191508054600181600116156101000203166002900480156109c85780601f1061099d576101008083540402835291602001916109c8565b820191906000526020600020905b8154815290600101906020018083116109ab57829003601f168201915b50509b50505050505050505050505060405180910390a26001905092915050565b60008060009054906101000a900473ffffffffffffffffffffffffffffffffffffffff1673ffffffffffffffffffffffffffffffffffffffff163373ffffffffffffffffffffffffffffffffffffffff1614610a4457600080fd5b600086868686866040516020018086805190602001908083835b60208310610a815780518252602082019150602081019050602083039250610a5e565b6001836020036101000a03801982511681845116808217855250505050505090500185805190602001908083835b60208310610ad25780518252602082019150602081019050602083039250610aaf565b6001836020036101000a03801982511681845116808217855250505050505090500184805190602001908083835b60208310610b235780518252602082019150602081019050602083039250610b00565b6001836020036101000a03801982511681845116808217855250505050505090500183805190602001908083835b60208310610b745780518252602082019150602081019050602083039250610b51565b6001836020036101000a03801982511681845116808217855250505050505090500182815260200195505050505050604051602081830303815290604052805190602001209050610bc4816112b6565b15610bce57600080fd5b86600160008381526020019081526020016000206000019080519060200190610bf892919061162d565b5085600160008381526020019081526020016000206001019080519060200190610c2392919061162d565b5084600160008381526020019081526020016000206002019080519060200190610c4e92919061162d565b5083600160008381526020019081526020016000206003019080519060200190610c7992919061162d565b5082600160008381526020019081526020016000206004018190555060016003829080600181540180825580915050906001820390600052602060002001600090919290919091505503600160008381526020019081526020016000206005018190555060006001600083815260200190815260200160002060060160006101000a81548160ff02191690836003811115610d1057fe5b0217905550807fb7b99263cf335df2fdf645c70004f0f70255bb54ba63c8b0afabdb695db55fbb6001600084815260200190815260200160002060050154898989898960006040518088815260200180602001806020018060200180602001878152602001866003811115610d8157fe5b60ff16815260200185810385528b818151815260200191508051906020019080838360005b83811015610dc1578082015181840152602081019050610da6565b50505050905090810190601f168015610dee5780820380516001836020036101000a031916815260200191505b5085810384528a818151815260200191508051906020019080838360005b83811015610e27578082015181840152602081019050610e0c565b50505050905090810190601f168015610e545780820380516001836020036101000a031916815260200191505b50858103835289818151815260200191508051906020019080838360005b83811015610e8d578082015181840152602081019050610e72565b50505050905090810190601f168015610eba5780820380516001836020036101000a031916815260200191505b50858103825288818151815260200191508051906020019080838360005b83811015610ef3578082015181840152602081019050610ed8565b50505050905090810190601f168015610f205780820380516001836020036101000a031916815260200191505b509b50505050505050505050505060405180910390a2600160008281526020019081526020016000206005015491505095945050505050565b6060806060806000806000610f6d886112b6565b610f7657600080fd5b60016000898152602001908152602001600020600001600160008a8152602001908152602001600020600101600160008b8152602001908152602001600020600201600160008c8152602001908152602001600020600301600160008d815260200190815260200160002060040154600160008e815260200190815260200160002060050154600160008f815260200190815260200160002060060160009054906101000a900460ff16868054600181600116156101000203166002900480601f0160208091040260200160405190810160405280929190818152602001828054600181600116156101000203166002900480156110b55780601f1061108a576101008083540402835291602001916110b5565b820191906000526020600020905b81548152906001019060200180831161109857829003601f168201915b50505050509650858054600181600116156101000203166002900480601f0160208091040260200160405190810160405280929190818152602001828054600181600116156101000203166002900480156111515780601f1061112657610100808354040283529160200191611151565b820191906000526020600020905b81548152906001019060200180831161113457829003601f168201915b50505050509550848054600181600116156101000203166002900480601f0160208091040260200160405190810160405280929190818152602001828054600181600116156101000203166002900480156111ed5780601f106111c2576101008083540402835291602001916111ed565b820191906000526020600020905b8154815290600101906020018083116111d057829003601f168201915b50505050509450838054600181600116156101000203166002900480601f0160208091040260200160405190810160405280929190818152602001828054600181600116156101000203166002900480156112895780601f1061125e57610100808354040283529160200191611289565b820191906000526020600020905b81548152906001019060200180831161126c57829003601f168201915b505050505093509650965096509650965096509650919395979092949650565b6000600380549050905090565b60008060038054905014156112ce5760009050611301565b8160036001600085815260200190815260200160002060050154815481106112f257fe5b90600052602060002001541490505b919050565b61130f816112b6565b61131857600080fd5b600160008281526020019081526020016000206004015434101561133b57600080fd5b6000600381111561134857fe5b6001600083815260200190815260200160002060060160009054906101000a900460ff16600381111561137757fe5b1461138157600080fd5b60008060009054906101000a900473ffffffffffffffffffffffffffffffffffffffff16905060003390506000348284866040516113be906116ad565b808473ffffffffffffffffffffffffffffffffffffffff1673ffffffffffffffffffffffffffffffffffffffff1681526020018373ffffffffffffffffffffffffffffffffffffffff1673ffffffffffffffffffffffffffffffffffffffff16815260200182815260200193505050506040518091039082f080158015611449573d6000803e3d6000fd5b5090509050836002600086815260200190815260200160002060000181905550826002600086815260200190815260200160002060010160006101000a81548173ffffffffffffffffffffffffffffffffffffffff021916908373ffffffffffffffffffffffffffffffffffffffff160217905550816002600086815260200190815260200160002060020160006101000a81548173ffffffffffffffffffffffffffffffffffffffff021916908373ffffffffffffffffffffffffffffffffffffffff160217905550806002600086815260200190815260200160002060030160006101000a81548173ffffffffffffffffffffffffffffffffffffffff021916908373ffffffffffffffffffffffffffffffffffffffff160217905550611573846001610696565b508173ffffffffffffffffffffffffffffffffffffffff168373ffffffffffffffffffffffffffffffffffffffff16857f3a37abb73784c07cf521474fe4f006908d6ffb755290433efea1ba004fa29e5884604051808273ffffffffffffffffffffffffffffffffffffffff1673ffffffffffffffffffffffffffffffffffffffff16815260200191505060405180910390a450505050565b60006003828154811061161b57fe5b90600052602060002001549050919050565b828054600181600116156101000203166002900490600052602060002090601f016020900481019282601f1061166e57805160ff191683800117855561169c565b8280016001018555821561169c579182015b8281111561169b578251825591602001919060010190611680565b5b5090506116a991906116ba565b5090565b610888806116e083390190565b6116dc91905b808211156116d85760008160009055506001016116c0565b5090565b9056fe6080604052426004556040516108883803806108888339818101604052606081101561002a57600080fd5b810190808051906020019092919080519060200190929190805190602001909291905050506000341161005c57600080fd5b336000806101000a81548173ffffffffffffffffffffffffffffffffffffffff021916908373ffffffffffffffffffffffffffffffffffffffff16021790555082600160006101000a81548173ffffffffffffffffffffffffffffffffffffffff021916908373ffffffffffffffffffffffffffffffffffffffff16021790555081600260006101000a81548173ffffffffffffffffffffffffffffffffffffffff021916908373ffffffffffffffffffffffffffffffffffffffff16021790555080600381905550505050610751806101376000396000f3fe608060405234801561001057600080fd5b50600436106100625760003560e01c806308551a53146100675780632852b71c146100b15780634dc415de146100bb57806353496a75146100c55780637150d8ae146100e3578063c5b0e6fb1461012d575b600080fd5b61006f61014b565b604051808273ffffffffffffffffffffffffffffffffffffffff1673ffffffffffffffffffffffffffffffffffffffff16815260200191505060405180910390f35b6100b9610171565b005b6100c36104fe565b005b6100cd6106ea565b6040518082815260200191505060405180910390f35b6100eb6106f0565b604051808273ffffffffffffffffffffffffffffffffffffffff1673ffffffffffffffffffffffffffffffffffffffff16815260200191505060405180910390f35b610135610716565b6040518082815260200191505060405180910390f35b600260009054906101000a900473ffffffffffffffffffffffffffffffffffffffff1681565b600160009054906101000a900473ffffffffffffffffffffffffffffffffffffffff1673ffffffffffffffffffffffffffffffffffffffff163373ffffffffffffffffffffffffffffffffffffffff16148061021a5750600260009054906101000a900473ffffffffffffffffffffffffffffffffffffffff1673ffffffffffffffffffffffffffffffffffffffff163373ffffffffffffffffffffffffffffffffffffffff16145b61022357600080fd5b60008060009054906101000a900473ffffffffffffffffffffffffffffffffffffffff169050600260009054906101000a900473ffffffffffffffffffffffffffffffffffffffff1673ffffffffffffffffffffffffffffffffffffffff163373ffffffffffffffffffffffffffffffffffffffff161480156102a857506000600654145b1561036157426006819055508073ffffffffffffffffffffffffffffffffffffffff16630ed7193260035460026040518363ffffffff1660e01b8152600401808381526020018260038111156102fa57fe5b60ff16815260200192505050602060405180830381600087803b15801561032057600080fd5b505af1158015610334573d6000803e3d6000fd5b505050506040513d602081101561034a57600080fd5b810190808051906020019092919050505050610476565b600160009054906101000a900473ffffffffffffffffffffffffffffffffffffffff1673ffffffffffffffffffffffffffffffffffffffff163373ffffffffffffffffffffffffffffffffffffffff161480156103c057506000600554145b1561047557426005819055508073ffffffffffffffffffffffffffffffffffffffff16630ed7193260035460036040518363ffffffff1660e01b81526004018083815260200182600381111561041257fe5b60ff16815260200192505050602060405180830381600087803b15801561043857600080fd5b505af115801561044c573d6000803e3d6000fd5b505050506040513d602081101561046257600080fd5b8101908080519060200190929190505050505b5b60006005541415801561048c5750600060065414155b156104fb57600260009054906101000a900473ffffffffffffffffffffffffffffffffffffffff1673ffffffffffffffffffffffffffffffffffffffff166108fc479081150290604051600060405180830381858888f193505050501580156104f9573d6000803e3d6000fd5b505b50565b600160009054906101000a900473ffffffffffffffffffffffffffffffffffffffff1673ffffffffffffffffffffffffffffffffffffffff163373ffffffffffffffffffffffffffffffffffffffff1614806105a75750600260009054906101000a900473ffffffffffffffffffffffffffffffffffffffff1673ffffffffffffffffffffffffffffffffffffffff163373ffffffffffffffffffffffffffffffffffffffff16145b6105b057600080fd5b60008060009054906101000a900473ffffffffffffffffffffffffffffffffffffffff1690508073ffffffffffffffffffffffffffffffffffffffff16630ed7193260035460006040518363ffffffff1660e01b81526004018083815260200182600381111561061c57fe5b60ff16815260200192505050602060405180830381600087803b15801561064257600080fd5b505af1158015610656573d6000803e3d6000fd5b505050506040513d602081101561066c57600080fd5b810190808051906020019092919050505050600160009054906101000a900473ffffffffffffffffffffffffffffffffffffffff1673ffffffffffffffffffffffffffffffffffffffff166108fc479081150290604051600060405180830381858888f193505050501580156106e6573d6000803e3d6000fd5b5050565b60055481565b600160009054906101000a900473ffffffffffffffffffffffffffffffffffffffff1681565b6006548156fea265627a7a723158204906920d74681d7f69642764acfe13007daac2159944be2879991cb93f95127764736f6c63430005100032a265627a7a723158208a747621efa5de686c6350b8a4de98d96b5bb7704119768d51c3408bab005d5c64736f6c63430005100032",
  "source": "// SPDX-License-Identifier: MIT\npragma solidity >=0.4.22 <0.9.0;\n\nimport \"./Escrow.sol\";\n\ncontract Store {\n    enum ProductStatus {\n        Available,\n        Processing,\n        Shipping,\n        Sold\n    }\n\n    struct Product {\n        string name;\n        string category;\n        string imageLink;\n        string descLink;\n        uint256 price;\n        uint256 index;\n        ProductStatus status;\n    }\n\n    struct Order {\n        bytes32 productId;\n        address seller;\n        address buyer;\n        address escrow;\n    }\n\n    address payable owner;\n    mapping(bytes32 => Product) products;\n    mapping(bytes32 => Order) orders;\n    bytes32[] productIds;\n\n    event ProductCreated(\n        bytes32 indexed id,\n        uint256 index,\n        string name,\n        string category,\n        string imageLink,\n        string descLink,\n        uint256 price,\n        ProductStatus status\n    );\n\n    event ProductUpdated(\n        bytes32 indexed id,\n        uint256 index,\n        string name,\n        string category,\n        string imageLink,\n        string descLink,\n        uint256 price,\n        ProductStatus status\n    );\n\n    event OrderCreated(\n        bytes32 indexed productId,\n        address indexed seller,\n        address indexed buyer,\n        address escrow\n    );\n\n    modifier onlyOwner() {\n        require(msg.sender == owner);\n        _;\n    }\n\n    constructor() public {\n        owner = msg.sender;\n    }\n\n    function addProduct(\n        string memory name,\n        string memory category,\n        string memory imageLink,\n        string memory descLink,\n        uint256 price\n    ) public onlyOwner returns (uint256) {\n        bytes32 id = keccak256(\n            abi.encodePacked(name, category, imageLink, descLink, price)\n        );\n        require(!isProduct(id));\n\n        products[id].name = name;\n        products[id].category = category;\n        products[id].imageLink = imageLink;\n        products[id].descLink = descLink;\n        products[id].price = price;\n        products[id].index = productIds.push(id) - 1;\n        products[id].status = ProductStatus.Available;\n\n        emit ProductCreated(\n            id,\n            products[id].index,\n            name,\n            category,\n            imageLink,\n            descLink,\n            price,\n            ProductStatus.Available\n        );\n\n        return products[id].index;\n    }\n\n    function placeOrder(bytes32 id) public payable {\n        require(isProduct(id));\n        require(msg.value >= products[id].price);\n        require(products[id].status == ProductStatus.Available);\n        address payable seller = owner; // Only allow owner sell items for now\n        address payable buyer = msg.sender;\n        address escrow = address(\n            (new Escrow).value(msg.value)(buyer, seller, id)\n        );\n\n        orders[id].productId = id;\n        orders[id].seller = seller;\n        orders[id].buyer = buyer;\n        orders[id].escrow = escrow;\n\n        updateProductStatus(id, ProductStatus.Processing);\n\n        emit OrderCreated(id, seller, buyer, escrow);\n    }\n\n    function isProduct(bytes32 id) public view returns (bool) {\n        if (productIds.length == 0) {\n            return false;\n        }\n\n        return productIds[products[id].index] == id;\n    }\n\n    function getProduct(bytes32 id)\n        public\n        view\n        returns (\n            string memory,\n            string memory,\n            string memory,\n            string memory,\n            uint256,\n            uint256,\n            ProductStatus\n        )\n    {\n        require(isProduct(id));\n\n        return (\n            products[id].name,\n            products[id].category,\n            products[id].imageLink,\n            products[id].descLink,\n            products[id].price,\n            products[id].index,\n            products[id].status\n        );\n    }\n\n    function getProductCount() public view returns (uint256) {\n        return productIds.length;\n    }\n\n    function getProductIdAt(uint256 index) public view returns (bytes32) {\n        return productIds[index];\n    }\n\n    function updateProductStatus(bytes32 id, ProductStatus status)\n        public\n        returns (bool)\n    {\n        require(isProduct(id));\n\n        products[id].status = status;\n\n        emit ProductUpdated(\n            id,\n            products[id].index,\n            products[id].name,\n            products[id].category,\n            products[id].imageLink,\n            products[id].descLink,\n            products[id].price,\n            status\n        );\n\n        return true;\n    }\n}\n",
  "sourcePath": "/Users/Nyeova-McBA02/Documents/Development/refactored/refactored/src/smc/contracts/Store.sol",
  "compiler": {
    "name": "solc",
    "version": "0.5.16+commit.9c3226ce.Emscripten.clang"
  },
  "schemaVersion": "3.4.2",
  "updatedAt": "2021-09-01T16:36:38.181Z",
  "devdoc": {
    "methods": {}
  },
  "userdoc": {
    "methods": {}
  }
}