{
  "contractName": "Escrow",
  "abi": [
    {
      "inputs": [
        {
          "internalType": "address payable",
          "name": "_buyer",
          "type": "address"
        },
        {
          "internalType": "address payable",
          "name": "_seller",
          "type": "address"
        },
        {
          "internalType": "bytes32",
          "name": "_productId",
          "type": "bytes32"
        }
      ],
      "payable": true,
      "stateMutability": "payable",
      "type": "constructor"
    },
    {
      "constant": true,
      "inputs": [],
      "name": "buyer",
      "outputs": [
        {
          "internalType": "address payable",
          "name": "",
          "type": "address"
        }
      ],
      "payable": false,
      "stateMutability": "view",
      "type": "function"
    },
    {
      "constant": true,
      "inputs": [],
      "name": "buyerOk",
      "outputs": [
        {
          "internalType": "uint256",
          "name": "",
          "type": "uint256"
        }
      ],
      "payable": false,
      "stateMutability": "view",
      "type": "function"
    },
    {
      "constant": true,
      "inputs": [],
      "name": "seller",
      "outputs": [
        {
          "internalType": "address payable",
          "name": "",
          "type": "address"
        }
      ],
      "payable": false,
      "stateMutability": "view",
      "type": "function"
    },
    {
      "constant": true,
      "inputs": [],
      "name": "sellerOk",
      "outputs": [
        {
          "internalType": "uint256",
          "name": "",
          "type": "uint256"
        }
      ],
      "payable": false,
      "stateMutability": "view",
      "type": "function"
    },
    {
      "constant": false,
      "inputs": [],
      "name": "accept",
      "outputs": [],
      "payable": false,
      "stateMutability": "nonpayable",
      "type": "function"
    },
    {
      "constant": false,
      "inputs": [],
      "name": "reject",
      "outputs": [],
      "payable": false,
      "stateMutability": "nonpayable",
      "type": "function"
    }
  ],
  "bytecode": "0x6080604052426004556040516108883803806108888339818101604052606081101561002a57600080fd5b810190808051906020019092919080519060200190929190805190602001909291905050506000341161005c57600080fd5b336000806101000a81548173ffffffffffffffffffffffffffffffffffffffff021916908373ffffffffffffffffffffffffffffffffffffffff16021790555082600160006101000a81548173ffffffffffffffffffffffffffffffffffffffff021916908373ffffffffffffffffffffffffffffffffffffffff16021790555081600260006101000a81548173ffffffffffffffffffffffffffffffffffffffff021916908373ffffffffffffffffffffffffffffffffffffffff16021790555080600381905550505050610751806101376000396000f3fe608060405234801561001057600080fd5b50600436106100625760003560e01c806308551a53146100675780632852b71c146100b15780634dc415de146100bb57806353496a75146100c55780637150d8ae146100e3578063c5b0e6fb1461012d575b600080fd5b61006f61014b565b604051808273ffffffffffffffffffffffffffffffffffffffff1673ffffffffffffffffffffffffffffffffffffffff16815260200191505060405180910390f35b6100b9610171565b005b6100c36104fe565b005b6100cd6106ea565b6040518082815260200191505060405180910390f35b6100eb6106f0565b604051808273ffffffffffffffffffffffffffffffffffffffff1673ffffffffffffffffffffffffffffffffffffffff16815260200191505060405180910390f35b610135610716565b6040518082815260200191505060405180910390f35b600260009054906101000a900473ffffffffffffffffffffffffffffffffffffffff1681565b600160009054906101000a900473ffffffffffffffffffffffffffffffffffffffff1673ffffffffffffffffffffffffffffffffffffffff163373ffffffffffffffffffffffffffffffffffffffff16148061021a5750600260009054906101000a900473ffffffffffffffffffffffffffffffffffffffff1673ffffffffffffffffffffffffffffffffffffffff163373ffffffffffffffffffffffffffffffffffffffff16145b61022357600080fd5b60008060009054906101000a900473ffffffffffffffffffffffffffffffffffffffff169050600260009054906101000a900473ffffffffffffffffffffffffffffffffffffffff1673ffffffffffffffffffffffffffffffffffffffff163373ffffffffffffffffffffffffffffffffffffffff161480156102a857506000600654145b1561036157426006819055508073ffffffffffffffffffffffffffffffffffffffff16630ed7193260035460026040518363ffffffff1660e01b8152600401808381526020018260038111156102fa57fe5b60ff16815260200192505050602060405180830381600087803b15801561032057600080fd5b505af1158015610334573d6000803e3d6000fd5b505050506040513d602081101561034a57600080fd5b810190808051906020019092919050505050610476565b600160009054906101000a900473ffffffffffffffffffffffffffffffffffffffff1673ffffffffffffffffffffffffffffffffffffffff163373ffffffffffffffffffffffffffffffffffffffff161480156103c057506000600554145b1561047557426005819055508073ffffffffffffffffffffffffffffffffffffffff16630ed7193260035460036040518363ffffffff1660e01b81526004018083815260200182600381111561041257fe5b60ff16815260200192505050602060405180830381600087803b15801561043857600080fd5b505af115801561044c573d6000803e3d6000fd5b505050506040513d602081101561046257600080fd5b8101908080519060200190929190505050505b5b60006005541415801561048c5750600060065414155b156104fb57600260009054906101000a900473ffffffffffffffffffffffffffffffffffffffff1673ffffffffffffffffffffffffffffffffffffffff166108fc479081150290604051600060405180830381858888f193505050501580156104f9573d6000803e3d6000fd5b505b50565b600160009054906101000a900473ffffffffffffffffffffffffffffffffffffffff1673ffffffffffffffffffffffffffffffffffffffff163373ffffffffffffffffffffffffffffffffffffffff1614806105a75750600260009054906101000a900473ffffffffffffffffffffffffffffffffffffffff1673ffffffffffffffffffffffffffffffffffffffff163373ffffffffffffffffffffffffffffffffffffffff16145b6105b057600080fd5b60008060009054906101000a900473ffffffffffffffffffffffffffffffffffffffff1690508073ffffffffffffffffffffffffffffffffffffffff16630ed7193260035460006040518363ffffffff1660e01b81526004018083815260200182600381111561061c57fe5b60ff16815260200192505050602060405180830381600087803b15801561064257600080fd5b505af1158015610656573d6000803e3d6000fd5b505050506040513d602081101561066c57600080fd5b810190808051906020019092919050505050600160009054906101000a900473ffffffffffffffffffffffffffffffffffffffff1673ffffffffffffffffffffffffffffffffffffffff166108fc479081150290604051600060405180830381858888f193505050501580156106e6573d6000803e3d6000fd5b5050565b60055481565b600160009054906101000a900473ffffffffffffffffffffffffffffffffffffffff1681565b6006548156fea265627a7a7231582046f45c5ef0f2c2eb9c563333ea779c27a1ac61c743f8007ddcba69f4b16ceafb64736f6c63430005100032",
  "source": "// SPDX-License-Identifier: MIT\r\npragma solidity >=0.4.22 <0.9.0;\r\n\r\nimport \"./Store.sol\";\r\n\r\n contract Escrow {\r\n    address owner;\r\n    address payable public buyer;\r\n    address payable public seller;\r\n    bytes32 productId;\r\n    uint256 createdAt = block.timestamp;\r\n    uint256 public buyerOk;\r\n    uint256 public sellerOk;\r\n\r\n    modifier onlyParticipant() {\r\n        require(msg.sender == buyer || msg.sender == seller);\r\n        _;\r\n    }\r\n\r\n    constructor(\r\n        address payable _buyer,\r\n        address payable _seller,\r\n        bytes32 _productId\r\n    )  payable public {\r\n        require(msg.value > 0);\r\n        owner = msg.sender;\r\n        buyer = _buyer;\r\n        seller = _seller;\r\n        productId = _productId;\r\n    }\r\n\r\n    function accept() public onlyParticipant {\r\n        Store store = Store(owner);\r\n\r\n        if (msg.sender == seller && sellerOk == 0) {\r\n            sellerOk = block.timestamp;\r\n            store.updateProductStatus(productId, Store.ProductStatus.Shipping);\r\n        } else if (msg.sender == buyer && buyerOk == 0) {\r\n            buyerOk = block.timestamp;\r\n            store.updateProductStatus(productId, Store.ProductStatus.Sold);\r\n        }\r\n\r\n        if (buyerOk != 0 && sellerOk != 0) {\r\n            seller.transfer(address(this).balance);\r\n        }\r\n    }\r\n\r\n    function reject() public onlyParticipant {\r\n        Store store = Store(owner);\r\n        store.updateProductStatus(productId, Store.ProductStatus.Available);\r\n        buyer.transfer(address(this).balance);\r\n    }\r\n}\r\n",
  "sourcePath": "C:\\Users\\nernu\\OneDrive\\Desktop\\ecommerce-smart-contract\\src\\smart-contract\\contracts\\Escrow.sol",
  "compiler": {
    "name": "solc",
    "version": "0.5.16+commit.9c3226ce.Emscripten.clang"
  },
  "schemaVersion": "3.4.3",
  "updatedAt": "2021-09-01T18:50:06.795Z",
  "devdoc": {
    "methods": {}
  },
  "userdoc": {
    "methods": {}
  }
}